{
  "abi": [
    {
      "inputs": [
        {
          "internalType": "string",
          "name": "name_",
          "type": "string"
        },
        {
          "internalType": "string",
          "name": "symbol_",
          "type": "string"
        },
        {
          "internalType": "uint8",
          "name": "burnRate",
          "type": "uint8"
        },
        {
          "internalType": "uint256",
          "name": "supply_",
          "type": "uint256"
        },
        {
          "internalType": "uint8",
          "name": "tax_",
          "type": "uint8"
        }
      ],
      "stateMutability": "nonpayable",
      "type": "constructor"
    },
    {
      "anonymous": false,
      "inputs": [
        {
          "indexed": true,
          "internalType": "address",
          "name": "owner",
          "type": "address"
        },
        {
          "indexed": true,
          "internalType": "address",
          "name": "spender",
          "type": "address"
        },
        {
          "indexed": false,
          "internalType": "uint256",
          "name": "value",
          "type": "uint256"
        }
      ],
      "name": "Approval",
      "type": "event"
    },
    {
      "anonymous": false,
      "inputs": [
        {
          "indexed": true,
          "internalType": "address",
          "name": "previousOwner",
          "type": "address"
        },
        {
          "indexed": true,
          "internalType": "address",
          "name": "newOwner",
          "type": "address"
        }
      ],
      "name": "OwnershipTransferred",
      "type": "event"
    },
    {
      "anonymous": false,
      "inputs": [
        {
          "indexed": true,
          "internalType": "address",
          "name": "from",
          "type": "address"
        },
        {
          "indexed": true,
          "internalType": "address",
          "name": "to",
          "type": "address"
        },
        {
          "indexed": false,
          "internalType": "uint256",
          "name": "value",
          "type": "uint256"
        }
      ],
      "name": "Transfer",
      "type": "event"
    },
    {
      "anonymous": false,
      "inputs": [
        {
          "indexed": false,
          "internalType": "address",
          "name": "from",
          "type": "address"
        },
        {
          "indexed": false,
          "internalType": "uint256",
          "name": "transferAmount",
          "type": "uint256"
        },
        {
          "indexed": false,
          "internalType": "uint256",
          "name": "burnAmount",
          "type": "uint256"
        }
      ],
      "name": "deflation",
      "type": "event"
    },
    {
      "inputs": [
        {
          "internalType": "uint256",
          "name": "amount",
          "type": "uint256"
        }
      ],
      "name": "_calculateBurnRate",
      "outputs": [
        {
          "internalType": "uint256",
          "name": "",
          "type": "uint256"
        }
      ],
      "stateMutability": "view",
      "type": "function"
    },
    {
      "inputs": [
        {
          "internalType": "uint256",
          "name": "amount",
          "type": "uint256"
        }
      ],
      "name": "_calculateTaxAmount",
      "outputs": [
        {
          "internalType": "uint256",
          "name": "",
          "type": "uint256"
        }
      ],
      "stateMutability": "view",
      "type": "function"
    },
    {
      "inputs": [
        {
          "internalType": "address",
          "name": "owner",
          "type": "address"
        },
        {
          "internalType": "address",
          "name": "spender",
          "type": "address"
        }
      ],
      "name": "allowance",
      "outputs": [
        {
          "internalType": "uint256",
          "name": "",
          "type": "uint256"
        }
      ],
      "stateMutability": "view",
      "type": "function"
    },
    {
      "inputs": [
        {
          "internalType": "address",
          "name": "spender",
          "type": "address"
        },
        {
          "internalType": "uint256",
          "name": "amount",
          "type": "uint256"
        }
      ],
      "name": "approve",
      "outputs": [
        {
          "internalType": "bool",
          "name": "",
          "type": "bool"
        }
      ],
      "stateMutability": "nonpayable",
      "type": "function"
    },
    {
      "inputs": [
        {
          "internalType": "address",
          "name": "account",
          "type": "address"
        }
      ],
      "name": "balanceOf",
      "outputs": [
        {
          "internalType": "uint256",
          "name": "",
          "type": "uint256"
        }
      ],
      "stateMutability": "view",
      "type": "function"
    },
    {
      "inputs": [],
      "name": "decimals",
      "outputs": [
        {
          "internalType": "uint8",
          "name": "",
          "type": "uint8"
        }
      ],
      "stateMutability": "view",
      "type": "function"
    },
    {
      "inputs": [
        {
          "internalType": "address",
          "name": "spender",
          "type": "address"
        },
        {
          "internalType": "uint256",
          "name": "subtractedValue",
          "type": "uint256"
        }
      ],
      "name": "decreaseAllowance",
      "outputs": [
        {
          "internalType": "bool",
          "name": "",
          "type": "bool"
        }
      ],
      "stateMutability": "nonpayable",
      "type": "function"
    },
    {
      "inputs": [],
      "name": "getBurnRate",
      "outputs": [
        {
          "internalType": "uint8",
          "name": "",
          "type": "uint8"
        }
      ],
      "stateMutability": "view",
      "type": "function"
    },
    {
      "inputs": [],
      "name": "getTax",
      "outputs": [
        {
          "internalType": "uint8",
          "name": "",
          "type": "uint8"
        }
      ],
      "stateMutability": "view",
      "type": "function"
    },
    {
      "inputs": [
        {
          "internalType": "address",
          "name": "spender",
          "type": "address"
        },
        {
          "internalType": "uint256",
          "name": "addedValue",
          "type": "uint256"
        }
      ],
      "name": "increaseAllowance",
      "outputs": [
        {
          "internalType": "bool",
          "name": "",
          "type": "bool"
        }
      ],
      "stateMutability": "nonpayable",
      "type": "function"
    },
    {
      "inputs": [],
      "name": "name",
      "outputs": [
        {
          "internalType": "string",
          "name": "",
          "type": "string"
        }
      ],
      "stateMutability": "view",
      "type": "function"
    },
    {
      "inputs": [],
      "name": "owner",
      "outputs": [
        {
          "internalType": "address",
          "name": "",
          "type": "address"
        }
      ],
      "stateMutability": "view",
      "type": "function"
    },
    {
      "inputs": [],
      "name": "renounceOwnership",
      "outputs": [],
      "stateMutability": "nonpayable",
      "type": "function"
    },
    {
      "inputs": [
        {
          "internalType": "uint8",
          "name": "burnRate_",
          "type": "uint8"
        }
      ],
      "name": "setBurnRate",
      "outputs": [
        {
          "internalType": "uint8",
          "name": "",
          "type": "uint8"
        }
      ],
      "stateMutability": "nonpayable",
      "type": "function"
    },
    {
      "inputs": [
        {
          "internalType": "uint8",
          "name": "tax_",
          "type": "uint8"
        }
      ],
      "name": "setTax",
      "outputs": [
        {
          "internalType": "uint8",
          "name": "",
          "type": "uint8"
        }
      ],
      "stateMutability": "nonpayable",
      "type": "function"
    },
    {
      "inputs": [],
      "name": "symbol",
      "outputs": [
        {
          "internalType": "string",
          "name": "",
          "type": "string"
        }
      ],
      "stateMutability": "view",
      "type": "function"
    },
    {
      "inputs": [],
      "name": "totalSupply",
      "outputs": [
        {
          "internalType": "uint256",
          "name": "",
          "type": "uint256"
        }
      ],
      "stateMutability": "view",
      "type": "function"
    },
    {
      "inputs": [
        {
          "internalType": "address",
          "name": "to",
          "type": "address"
        },
        {
          "internalType": "uint256",
          "name": "amount",
          "type": "uint256"
        }
      ],
      "name": "transfer",
      "outputs": [
        {
          "internalType": "bool",
          "name": "",
          "type": "bool"
        }
      ],
      "stateMutability": "nonpayable",
      "type": "function"
    },
    {
      "inputs": [
        {
          "internalType": "address",
          "name": "from",
          "type": "address"
        },
        {
          "internalType": "address",
          "name": "to",
          "type": "address"
        },
        {
          "internalType": "uint256",
          "name": "amount",
          "type": "uint256"
        }
      ],
      "name": "transferFrom",
      "outputs": [
        {
          "internalType": "bool",
          "name": "",
          "type": "bool"
        }
      ],
      "stateMutability": "nonpayable",
      "type": "function"
    },
    {
      "inputs": [
        {
          "internalType": "address",
          "name": "newOwner",
          "type": "address"
        }
      ],
      "name": "transferOwnership",
      "outputs": [],
      "stateMutability": "nonpayable",
      "type": "function"
    }
  ],
  "bytecode": {
    "object": "0x60806040523480156200001157600080fd5b506040516200153a3803806200153a8339810160408190526200003491620002d8565b84846003620000448382620003ff565b506004620000538282620003ff565b505050620000706200006a620000db60201b60201c565b620000df565b6005805460ff838116600160a81b0260ff60a81b19918716600160a01b029190911661ffff60a01b1990921691909117179055620000d033620000b1601290565b620000be90600a620005e0565b620000ca9085620005f8565b62000131565b505050505062000628565b3390565b600580546001600160a01b038381166001600160a01b0319831681179093556040519116919082907f8be0079c531659141344cd1fd0a4f28419497f9722a3daafe3b4186f6b6457e090600090a35050565b6001600160a01b0382166200018c5760405162461bcd60e51b815260206004820152601f60248201527f45524332303a206d696e7420746f20746865207a65726f206164647265737300604482015260640160405180910390fd5b8060026000828254620001a0919062000612565b90915550506001600160a01b038216600081815260208181526040808320805486019055518481527fddf252ad1be2c89b69c2b068fc378daa952ba7f163c4a11628f55a4df523b3ef910160405180910390a35050565b505050565b634e487b7160e01b600052604160045260246000fd5b600082601f8301126200022457600080fd5b81516001600160401b0380821115620002415762000241620001fc565b604051601f8301601f19908116603f011681019082821181831017156200026c576200026c620001fc565b816040528381526020925086838588010111156200028957600080fd5b600091505b83821015620002ad57858201830151818301840152908201906200028e565b600093810190920192909252949350505050565b805160ff81168114620002d357600080fd5b919050565b600080600080600060a08688031215620002f157600080fd5b85516001600160401b03808211156200030957600080fd5b6200031789838a0162000212565b965060208801519150808211156200032e57600080fd5b506200033d8882890162000212565b9450506200034e60408701620002c1565b9250606086015191506200036560808701620002c1565b90509295509295909350565b600181811c908216806200038657607f821691505b602082108103620003a757634e487b7160e01b600052602260045260246000fd5b50919050565b601f821115620001f757600081815260208120601f850160051c81016020861015620003d65750805b601f850160051c820191505b81811015620003f757828155600101620003e2565b505050505050565b81516001600160401b038111156200041b576200041b620001fc565b62000433816200042c845462000371565b84620003ad565b602080601f8311600181146200046b5760008415620004525750858301515b600019600386901b1c1916600185901b178555620003f7565b600085815260208120601f198616915b828110156200049c578886015182559484019460019091019084016200047b565b5085821015620004bb5787850151600019600388901b60f8161c191681555b5050505050600190811b01905550565b634e487b7160e01b600052601160045260246000fd5b600181815b8085111562000522578160001904821115620005065762000506620004cb565b808516156200051457918102915b93841c9390800290620004e6565b509250929050565b6000826200053b57506001620005da565b816200054a57506000620005da565b81600181146200056357600281146200056e576200058e565b6001915050620005da565b60ff841115620005825762000582620004cb565b50506001821b620005da565b5060208310610133831016604e8410600b8410161715620005b3575081810a620005da565b620005bf8383620004e1565b8060001904821115620005d657620005d6620004cb565b0290505b92915050565b6000620005f160ff8416836200052a565b9392505050565b8082028115828204841417620005da57620005da620004cb565b80820180821115620005da57620005da620004cb565b610f0280620006386000396000f3fe608060405234801561001057600080fd5b506004361061012c5760003560e01c80635eb08d8a116100ad578063a457c2d711610071578063a457c2d714610262578063a9059cbb14610275578063c202ea4c14610288578063dd62ed3e1461029b578063f2fde38b146102ae57600080fd5b80635eb08d8a146101f957806370a082311461020c578063715018a6146102355780638da5cb5b1461023f57806395d89b411461025a57600080fd5b8063313ce567116100f4578063313ce567146101ae57806339509351146101c35780634647cce0146101d6578063482cd6c5146101e957806354b762a6146101f157600080fd5b806306fdde0314610131578063095ea7b31461014f5780631314f4831461017257806318160ddd1461019357806323b872dd1461019b575b600080fd5b6101396102c1565b6040516101469190610cc1565b60405180910390f35b61016261015d366004610d26565b610353565b6040519015158152602001610146565b610185610180366004610d50565b61036d565b604051908152602001610146565b600254610185565b6101626101a9366004610d69565b610394565b60125b60405160ff9091168152602001610146565b6101626101d1366004610d26565b610446565b6101856101e4366004610d50565b610468565b6101b1610485565b6101b16104a0565b6101b1610207366004610da5565b6104bb565b61018561021a366004610dcf565b6001600160a01b031660009081526020819052604090205490565b61023d610542565b005b6005546040516001600160a01b039091168152602001610146565b610139610556565b610162610270366004610d26565b610565565b610162610283366004610d26565b6105eb565b6101b1610296366004610da5565b610673565b6101856102a9366004610dea565b610704565b61023d6102bc366004610dcf565b61072f565b6060600380546102d090610e1d565b80601f01602080910402602001604051908101604052809291908181526020018280546102fc90610e1d565b80156103495780601f1061031e57610100808354040283529160200191610349565b820191906000526020600020905b81548152906001019060200180831161032c57829003601f168201915b5050505050905090565b6000336103618185856107a8565b60019150505b92915050565b60055460009060649061038a90600160a81b900460ff1684610e6d565b6103679190610e84565b336000818152602081905260408120549091908311156103fb5760405162461bcd60e51b815260206004820152601d60248201527f4e6f7420656e6f75676820746f6b656e7320746f207472616e7366657200000060448201526064015b60405180910390fd5b600061040684610468565b905061041c86836104178488610ea6565b6108cd565b610430868661042b8488610ea6565b610947565b61043a8682610aeb565b50600195945050505050565b6000336103618185856104598383610704565b6104639190610eb9565b6107a8565b60055460009060649061038a90600160a01b900460ff1684610e6d565b600061048f610c15565b50600554600160a01b900460ff1690565b60006104aa610c15565b50600554600160a81b900460ff1690565b60006104c5610c15565b60008260ff16116105185760405162461bcd60e51b815260206004820152601760248201527f4665652063616e6e6f7420626520302070657263656e7400000000000000000060448201526064016103f2565b506005805460ff60a01b1916600160a01b60ff84811682029290921792839055909104165b919050565b61054a610c15565b6105546000610c6f565b565b6060600480546102d090610e1d565b600033816105738286610704565b9050838110156105d35760405162461bcd60e51b815260206004820152602560248201527f45524332303a2064656372656173656420616c6c6f77616e63652062656c6f77604482015264207a65726f60d81b60648201526084016103f2565b6105e082868684036107a8565b506001949350505050565b3360008181526020819052604081205490919083111561064d5760405162461bcd60e51b815260206004820152601d60248201527f4e6f7420656e6f75676820746f6b656e7320746f207472616e7366657200000060448201526064016103f2565b600061065884610468565b9050610669828661042b8488610ea6565b6105e08282610aeb565b600061067d610c15565b600a8260ff16106106de5760405162461bcd60e51b815260206004820152602560248201527f4665652063616e6e6f742062652067726561746572207468616e2031302070656044820152641c98d95b9d60da1b60648201526084016103f2565b506005805460ff60a81b1916600160a81b60ff9384168102919091179182905590041690565b6001600160a01b03918216600090815260016020908152604080832093909416825291909152205490565b610737610c15565b6001600160a01b03811661079c5760405162461bcd60e51b815260206004820152602660248201527f4f776e61626c653a206e6577206f776e657220697320746865207a65726f206160448201526564647265737360d01b60648201526084016103f2565b6107a581610c6f565b50565b6001600160a01b03831661080a5760405162461bcd60e51b8152602060048201526024808201527f45524332303a20617070726f76652066726f6d20746865207a65726f206164646044820152637265737360e01b60648201526084016103f2565b6001600160a01b03821661086b5760405162461bcd60e51b815260206004820152602260248201527f45524332303a20617070726f766520746f20746865207a65726f206164647265604482015261737360f01b60648201526084016103f2565b6001600160a01b0383811660008181526001602090815260408083209487168084529482529182902085905590518481527f8c5be1e5ebec7d5bd14f71427d1e84f3dd0314c0f7b2291e5b200ac8c7c3b92591015b60405180910390a3505050565b60006108d98484610704565b9050600019811461094157818110156109345760405162461bcd60e51b815260206004820152601d60248201527f45524332303a20696e73756666696369656e7420616c6c6f77616e636500000060448201526064016103f2565b61094184848484036107a8565b50505050565b6001600160a01b0383166109ab5760405162461bcd60e51b815260206004820152602560248201527f45524332303a207472616e736665722066726f6d20746865207a65726f206164604482015264647265737360d81b60648201526084016103f2565b6001600160a01b038216610a0d5760405162461bcd60e51b815260206004820152602360248201527f45524332303a207472616e7366657220746f20746865207a65726f206164647260448201526265737360e81b60648201526084016103f2565b6001600160a01b03831660009081526020819052604090205481811015610a855760405162461bcd60e51b815260206004820152602660248201527f45524332303a207472616e7366657220616d6f756e7420657863656564732062604482015265616c616e636560d01b60648201526084016103f2565b6001600160a01b03848116600081815260208181526040808320878703905593871680835291849020805487019055925185815290927fddf252ad1be2c89b69c2b068fc378daa952ba7f163c4a11628f55a4df523b3ef910160405180910390a3610941565b6001600160a01b038216610b4b5760405162461bcd60e51b815260206004820152602160248201527f45524332303a206275726e2066726f6d20746865207a65726f206164647265736044820152607360f81b60648201526084016103f2565b6001600160a01b03821660009081526020819052604090205481811015610bbf5760405162461bcd60e51b815260206004820152602260248201527f45524332303a206275726e20616d6f756e7420657863656564732062616c616e604482015261636560f01b60648201526084016103f2565b6001600160a01b0383166000818152602081815260408083208686039055600280548790039055518581529192917fddf252ad1be2c89b69c2b068fc378daa952ba7f163c4a11628f55a4df523b3ef91016108c0565b6005546001600160a01b031633146105545760405162461bcd60e51b815260206004820181905260248201527f4f776e61626c653a2063616c6c6572206973206e6f7420746865206f776e657260448201526064016103f2565b600580546001600160a01b038381166001600160a01b0319831681179093556040519116919082907f8be0079c531659141344cd1fd0a4f28419497f9722a3daafe3b4186f6b6457e090600090a35050565b600060208083528351808285015260005b81811015610cee57858101830151858201604001528201610cd2565b506000604082860101526040601f19601f8301168501019250505092915050565b80356001600160a01b038116811461053d57600080fd5b60008060408385031215610d3957600080fd5b610d4283610d0f565b946020939093013593505050565b600060208284031215610d6257600080fd5b5035919050565b600080600060608486031215610d7e57600080fd5b610d8784610d0f565b9250610d9560208501610d0f565b9150604084013590509250925092565b600060208284031215610db757600080fd5b813560ff81168114610dc857600080fd5b9392505050565b600060208284031215610de157600080fd5b610dc882610d0f565b60008060408385031215610dfd57600080fd5b610e0683610d0f565b9150610e1460208401610d0f565b90509250929050565b600181811c90821680610e3157607f821691505b602082108103610e5157634e487b7160e01b600052602260045260246000fd5b50919050565b634e487b7160e01b600052601160045260246000fd5b808202811582820484141761036757610367610e57565b600082610ea157634e487b7160e01b600052601260045260246000fd5b500490565b8181038181111561036757610367610e57565b8082018082111561036757610367610e5756fea26469706673582212207092f33a8dc792eafc48657c5734fcb60ee3862af5a0e48cefc4620e8500745f64736f6c63430008110033",
    "linkReferences": {}
  },
  "methodIdentifiers": {
    "_calculateBurnRate(uint256)": "4647cce0",
    "_calculateTaxAmount(uint256)": "1314f483",
    "allowance(address,address)": "dd62ed3e",
    "approve(address,uint256)": "095ea7b3",
    "balanceOf(address)": "70a08231",
    "decimals()": "313ce567",
    "decreaseAllowance(address,uint256)": "a457c2d7",
    "getBurnRate()": "482cd6c5",
    "getTax()": "54b762a6",
    "increaseAllowance(address,uint256)": "39509351",
    "name()": "06fdde03",
    "owner()": "8da5cb5b",
    "renounceOwnership()": "715018a6",
    "setBurnRate(uint8)": "5eb08d8a",
    "setTax(uint8)": "c202ea4c",
    "symbol()": "95d89b41",
    "totalSupply()": "18160ddd",
    "transfer(address,uint256)": "a9059cbb",
    "transferFrom(address,address,uint256)": "23b872dd",
    "transferOwnership(address)": "f2fde38b"
  },
  "id": 1
}