{
  "abi": [
    {
      "inputs": [
        {
          "internalType": "string",
          "name": "name_",
          "type": "string"
        },
        {
          "internalType": "string",
          "name": "symbol_",
          "type": "string"
        },
        {
          "internalType": "uint8",
          "name": "burnRate",
          "type": "uint8"
        },
        {
          "internalType": "uint256",
          "name": "supply_",
          "type": "uint256"
        }
      ],
      "stateMutability": "nonpayable",
      "type": "constructor"
    },
    {
      "anonymous": false,
      "inputs": [
        {
          "indexed": true,
          "internalType": "address",
          "name": "owner",
          "type": "address"
        },
        {
          "indexed": true,
          "internalType": "address",
          "name": "spender",
          "type": "address"
        },
        {
          "indexed": false,
          "internalType": "uint256",
          "name": "value",
          "type": "uint256"
        }
      ],
      "name": "Approval",
      "type": "event"
    },
    {
      "anonymous": false,
      "inputs": [
        {
          "indexed": true,
          "internalType": "address",
          "name": "previousOwner",
          "type": "address"
        },
        {
          "indexed": true,
          "internalType": "address",
          "name": "newOwner",
          "type": "address"
        }
      ],
      "name": "OwnershipTransferred",
      "type": "event"
    },
    {
      "anonymous": false,
      "inputs": [
        {
          "indexed": true,
          "internalType": "address",
          "name": "from",
          "type": "address"
        },
        {
          "indexed": true,
          "internalType": "address",
          "name": "to",
          "type": "address"
        },
        {
          "indexed": false,
          "internalType": "uint256",
          "name": "value",
          "type": "uint256"
        }
      ],
      "name": "Transfer",
      "type": "event"
    },
    {
      "anonymous": false,
      "inputs": [
        {
          "indexed": false,
          "internalType": "address",
          "name": "from",
          "type": "address"
        },
        {
          "indexed": false,
          "internalType": "uint256",
          "name": "transferAmount",
          "type": "uint256"
        },
        {
          "indexed": false,
          "internalType": "uint256",
          "name": "burnAmount",
          "type": "uint256"
        }
      ],
      "name": "deflation",
      "type": "event"
    },
    {
      "inputs": [
        {
          "internalType": "address",
          "name": "owner",
          "type": "address"
        },
        {
          "internalType": "address",
          "name": "spender",
          "type": "address"
        }
      ],
      "name": "allowance",
      "outputs": [
        {
          "internalType": "uint256",
          "name": "",
          "type": "uint256"
        }
      ],
      "stateMutability": "view",
      "type": "function"
    },
    {
      "inputs": [
        {
          "internalType": "address",
          "name": "spender",
          "type": "address"
        },
        {
          "internalType": "uint256",
          "name": "amount",
          "type": "uint256"
        }
      ],
      "name": "approve",
      "outputs": [
        {
          "internalType": "bool",
          "name": "",
          "type": "bool"
        }
      ],
      "stateMutability": "nonpayable",
      "type": "function"
    },
    {
      "inputs": [
        {
          "internalType": "address",
          "name": "account",
          "type": "address"
        }
      ],
      "name": "balanceOf",
      "outputs": [
        {
          "internalType": "uint256",
          "name": "",
          "type": "uint256"
        }
      ],
      "stateMutability": "view",
      "type": "function"
    },
    {
      "inputs": [
        {
          "internalType": "uint256",
          "name": "amount",
          "type": "uint256"
        }
      ],
      "name": "calculateBurnRate",
      "outputs": [
        {
          "internalType": "uint256",
          "name": "",
          "type": "uint256"
        }
      ],
      "stateMutability": "view",
      "type": "function"
    },
    {
      "inputs": [],
      "name": "decimals",
      "outputs": [
        {
          "internalType": "uint8",
          "name": "",
          "type": "uint8"
        }
      ],
      "stateMutability": "view",
      "type": "function"
    },
    {
      "inputs": [
        {
          "internalType": "address",
          "name": "spender",
          "type": "address"
        },
        {
          "internalType": "uint256",
          "name": "subtractedValue",
          "type": "uint256"
        }
      ],
      "name": "decreaseAllowance",
      "outputs": [
        {
          "internalType": "bool",
          "name": "",
          "type": "bool"
        }
      ],
      "stateMutability": "nonpayable",
      "type": "function"
    },
    {
      "inputs": [],
      "name": "getBurnRate",
      "outputs": [
        {
          "internalType": "uint8",
          "name": "",
          "type": "uint8"
        }
      ],
      "stateMutability": "view",
      "type": "function"
    },
    {
      "inputs": [
        {
          "internalType": "address",
          "name": "spender",
          "type": "address"
        },
        {
          "internalType": "uint256",
          "name": "addedValue",
          "type": "uint256"
        }
      ],
      "name": "increaseAllowance",
      "outputs": [
        {
          "internalType": "bool",
          "name": "",
          "type": "bool"
        }
      ],
      "stateMutability": "nonpayable",
      "type": "function"
    },
    {
      "inputs": [],
      "name": "name",
      "outputs": [
        {
          "internalType": "string",
          "name": "",
          "type": "string"
        }
      ],
      "stateMutability": "view",
      "type": "function"
    },
    {
      "inputs": [],
      "name": "owner",
      "outputs": [
        {
          "internalType": "address",
          "name": "",
          "type": "address"
        }
      ],
      "stateMutability": "view",
      "type": "function"
    },
    {
      "inputs": [],
      "name": "renounceOwnership",
      "outputs": [],
      "stateMutability": "nonpayable",
      "type": "function"
    },
    {
      "inputs": [
        {
          "internalType": "uint8",
          "name": "burnRate_",
          "type": "uint8"
        }
      ],
      "name": "setBurnRate",
      "outputs": [
        {
          "internalType": "uint8",
          "name": "",
          "type": "uint8"
        }
      ],
      "stateMutability": "nonpayable",
      "type": "function"
    },
    {
      "inputs": [],
      "name": "symbol",
      "outputs": [
        {
          "internalType": "string",
          "name": "",
          "type": "string"
        }
      ],
      "stateMutability": "view",
      "type": "function"
    },
    {
      "inputs": [],
      "name": "totalSupply",
      "outputs": [
        {
          "internalType": "uint256",
          "name": "",
          "type": "uint256"
        }
      ],
      "stateMutability": "view",
      "type": "function"
    },
    {
      "inputs": [
        {
          "internalType": "address",
          "name": "to",
          "type": "address"
        },
        {
          "internalType": "uint256",
          "name": "amount",
          "type": "uint256"
        }
      ],
      "name": "transfer",
      "outputs": [
        {
          "internalType": "bool",
          "name": "",
          "type": "bool"
        }
      ],
      "stateMutability": "nonpayable",
      "type": "function"
    },
    {
      "inputs": [
        {
          "internalType": "address",
          "name": "from",
          "type": "address"
        },
        {
          "internalType": "address",
          "name": "to",
          "type": "address"
        },
        {
          "internalType": "uint256",
          "name": "amount",
          "type": "uint256"
        }
      ],
      "name": "transferFrom",
      "outputs": [
        {
          "internalType": "bool",
          "name": "",
          "type": "bool"
        }
      ],
      "stateMutability": "nonpayable",
      "type": "function"
    },
    {
      "inputs": [
        {
          "internalType": "address",
          "name": "newOwner",
          "type": "address"
        }
      ],
      "name": "transferOwnership",
      "outputs": [],
      "stateMutability": "nonpayable",
      "type": "function"
    }
  ],
  "bytecode": {
    "object": "0x60806040523480156200001157600080fd5b50604051620013e5380380620013e58339810160408190526200003491620002a5565b83836003620000448382620003be565b506004620000538282620003be565b505050620000706200006a620000bf60201b60201c565b620000c3565b6005805460ff60a01b1916600160a01b60ff851602179055620000b53362000096601290565b620000a390600a6200059f565b620000af9084620005b7565b62000115565b50505050620005e7565b3390565b600580546001600160a01b038381166001600160a01b0319831681179093556040519116919082907f8be0079c531659141344cd1fd0a4f28419497f9722a3daafe3b4186f6b6457e090600090a35050565b6001600160a01b038216620001705760405162461bcd60e51b815260206004820152601f60248201527f45524332303a206d696e7420746f20746865207a65726f206164647265737300604482015260640160405180910390fd5b8060026000828254620001849190620005d1565b90915550506001600160a01b038216600081815260208181526040808320805486019055518481527fddf252ad1be2c89b69c2b068fc378daa952ba7f163c4a11628f55a4df523b3ef910160405180910390a35050565b505050565b634e487b7160e01b600052604160045260246000fd5b600082601f8301126200020857600080fd5b81516001600160401b0380821115620002255762000225620001e0565b604051601f8301601f19908116603f01168101908282118183101715620002505762000250620001e0565b816040528381526020925086838588010111156200026d57600080fd5b600091505b8382101562000291578582018301518183018401529082019062000272565b600093810190920192909252949350505050565b60008060008060808587031215620002bc57600080fd5b84516001600160401b0380821115620002d457600080fd5b620002e288838901620001f6565b95506020870151915080821115620002f957600080fd5b506200030887828801620001f6565b935050604085015160ff811681146200032057600080fd5b6060959095015193969295505050565b600181811c908216806200034557607f821691505b6020821081036200036657634e487b7160e01b600052602260045260246000fd5b50919050565b601f821115620001db57600081815260208120601f850160051c81016020861015620003955750805b601f850160051c820191505b81811015620003b657828155600101620003a1565b505050505050565b81516001600160401b03811115620003da57620003da620001e0565b620003f281620003eb845462000330565b846200036c565b602080601f8311600181146200042a5760008415620004115750858301515b600019600386901b1c1916600185901b178555620003b6565b600085815260208120601f198616915b828110156200045b578886015182559484019460019091019084016200043a565b50858210156200047a5787850151600019600388901b60f8161c191681555b5050505050600190811b01905550565b634e487b7160e01b600052601160045260246000fd5b600181815b80851115620004e1578160001904821115620004c557620004c56200048a565b80851615620004d357918102915b93841c9390800290620004a5565b509250929050565b600082620004fa5750600162000599565b81620005095750600062000599565b81600181146200052257600281146200052d576200054d565b600191505062000599565b60ff8411156200054157620005416200048a565b50506001821b62000599565b5060208310610133831016604e8410600b841016171562000572575081810a62000599565b6200057e8383620004a0565b80600019048211156200059557620005956200048a565b0290505b92915050565b6000620005b060ff841683620004e9565b9392505050565b80820281158282048414176200059957620005996200048a565b808201808211156200059957620005996200048a565b610dee80620005f76000396000f3fe608060405234801561001057600080fd5b506004361061010b5760003560e01c806370a08231116100a257806395d89b411161007157806395d89b411461021a578063a457c2d714610222578063a9059cbb14610235578063dd62ed3e14610248578063f2fde38b1461025b57600080fd5b806370a08231146101b9578063715018a6146101e25780638da5cb5b146101ec578063941381451461020757600080fd5b8063313ce567116100de578063313ce56714610176578063395093511461018b578063482cd6c51461019e5780635eb08d8a146101a657600080fd5b806306fdde0314610110578063095ea7b31461012e57806318160ddd1461015157806323b872dd14610163575b600080fd5b61011861026e565b6040516101259190610bad565b60405180910390f35b61014161013c366004610c12565b610300565b6040519015158152602001610125565b6002545b604051908152602001610125565b610141610171366004610c3c565b61031a565b60125b60405160ff9091168152602001610125565b610141610199366004610c12565b6103d4565b6101796103f6565b6101796101b4366004610c78565b610411565b6101556101c7366004610ca2565b6001600160a01b031660009081526020819052604090205490565b6101ea610498565b005b6005546040516001600160a01b039091168152602001610125565b610155610215366004610cbd565b6104ac565b6101186104d3565b610141610230366004610c12565b6104e2565b610141610243366004610c12565b610568565b610155610256366004610cd6565b6105f0565b6101ea610269366004610ca2565b61061b565b60606003805461027d90610d09565b80601f01602080910402602001604051908101604052809291908181526020018280546102a990610d09565b80156102f65780601f106102cb576101008083540402835291602001916102f6565b820191906000526020600020905b8154815290600101906020018083116102d957829003601f168201915b5050505050905090565b60003361030e818585610694565b60019150505b92915050565b6001600160a01b03831660009081526020819052604081205433908311156103895760405162461bcd60e51b815260206004820152601d60248201527f4e6f7420656e6f75676820746f6b656e7320746f207472616e7366657200000060448201526064015b60405180910390fd5b6000610394846104ac565b90506103aa86836103a58488610d59565b6107b9565b6103be86866103b98488610d59565b610833565b6103c886826109d7565b50600195945050505050565b60003361030e8185856103e783836105f0565b6103f19190610d6c565b610694565b6000610400610b01565b50600554600160a01b900460ff1690565b600061041b610b01565b60008260ff161161046e5760405162461bcd60e51b815260206004820152601760248201527f4665652063616e6e6f7420626520302070657263656e740000000000000000006044820152606401610380565b506005805460ff60a01b1916600160a01b60ff84811682029290921792839055909104165b919050565b6104a0610b01565b6104aa6000610b5b565b565b6005546000906064906104c990600160a01b900460ff1684610d7f565b6103149190610d96565b60606004805461027d90610d09565b600033816104f082866105f0565b9050838110156105505760405162461bcd60e51b815260206004820152602560248201527f45524332303a2064656372656173656420616c6c6f77616e63652062656c6f77604482015264207a65726f60d81b6064820152608401610380565b61055d8286868403610694565b506001949350505050565b336000818152602081905260408120549091908311156105ca5760405162461bcd60e51b815260206004820152601d60248201527f4e6f7420656e6f75676820746f6b656e7320746f207472616e736665720000006044820152606401610380565b60006105d5846104ac565b90506105e682866103b98488610d59565b61055d82826109d7565b6001600160a01b03918216600090815260016020908152604080832093909416825291909152205490565b610623610b01565b6001600160a01b0381166106885760405162461bcd60e51b815260206004820152602660248201527f4f776e61626c653a206e6577206f776e657220697320746865207a65726f206160448201526564647265737360d01b6064820152608401610380565b61069181610b5b565b50565b6001600160a01b0383166106f65760405162461bcd60e51b8152602060048201526024808201527f45524332303a20617070726f76652066726f6d20746865207a65726f206164646044820152637265737360e01b6064820152608401610380565b6001600160a01b0382166107575760405162461bcd60e51b815260206004820152602260248201527f45524332303a20617070726f766520746f20746865207a65726f206164647265604482015261737360f01b6064820152608401610380565b6001600160a01b0383811660008181526001602090815260408083209487168084529482529182902085905590518481527f8c5be1e5ebec7d5bd14f71427d1e84f3dd0314c0f7b2291e5b200ac8c7c3b92591015b60405180910390a3505050565b60006107c584846105f0565b9050600019811461082d57818110156108205760405162461bcd60e51b815260206004820152601d60248201527f45524332303a20696e73756666696369656e7420616c6c6f77616e63650000006044820152606401610380565b61082d8484848403610694565b50505050565b6001600160a01b0383166108975760405162461bcd60e51b815260206004820152602560248201527f45524332303a207472616e736665722066726f6d20746865207a65726f206164604482015264647265737360d81b6064820152608401610380565b6001600160a01b0382166108f95760405162461bcd60e51b815260206004820152602360248201527f45524332303a207472616e7366657220746f20746865207a65726f206164647260448201526265737360e81b6064820152608401610380565b6001600160a01b038316600090815260208190526040902054818110156109715760405162461bcd60e51b815260206004820152602660248201527f45524332303a207472616e7366657220616d6f756e7420657863656564732062604482015265616c616e636560d01b6064820152608401610380565b6001600160a01b03848116600081815260208181526040808320878703905593871680835291849020805487019055925185815290927fddf252ad1be2c89b69c2b068fc378daa952ba7f163c4a11628f55a4df523b3ef910160405180910390a361082d565b6001600160a01b038216610a375760405162461bcd60e51b815260206004820152602160248201527f45524332303a206275726e2066726f6d20746865207a65726f206164647265736044820152607360f81b6064820152608401610380565b6001600160a01b03821660009081526020819052604090205481811015610aab5760405162461bcd60e51b815260206004820152602260248201527f45524332303a206275726e20616d6f756e7420657863656564732062616c616e604482015261636560f01b6064820152608401610380565b6001600160a01b0383166000818152602081815260408083208686039055600280548790039055518581529192917fddf252ad1be2c89b69c2b068fc378daa952ba7f163c4a11628f55a4df523b3ef91016107ac565b6005546001600160a01b031633146104aa5760405162461bcd60e51b815260206004820181905260248201527f4f776e61626c653a2063616c6c6572206973206e6f7420746865206f776e65726044820152606401610380565b600580546001600160a01b038381166001600160a01b0319831681179093556040519116919082907f8be0079c531659141344cd1fd0a4f28419497f9722a3daafe3b4186f6b6457e090600090a35050565b600060208083528351808285015260005b81811015610bda57858101830151858201604001528201610bbe565b506000604082860101526040601f19601f8301168501019250505092915050565b80356001600160a01b038116811461049357600080fd5b60008060408385031215610c2557600080fd5b610c2e83610bfb565b946020939093013593505050565b600080600060608486031215610c5157600080fd5b610c5a84610bfb565b9250610c6860208501610bfb565b9150604084013590509250925092565b600060208284031215610c8a57600080fd5b813560ff81168114610c9b57600080fd5b9392505050565b600060208284031215610cb457600080fd5b610c9b82610bfb565b600060208284031215610ccf57600080fd5b5035919050565b60008060408385031215610ce957600080fd5b610cf283610bfb565b9150610d0060208401610bfb565b90509250929050565b600181811c90821680610d1d57607f821691505b602082108103610d3d57634e487b7160e01b600052602260045260246000fd5b50919050565b634e487b7160e01b600052601160045260246000fd5b8181038181111561031457610314610d43565b8082018082111561031457610314610d43565b808202811582820484141761031457610314610d43565b600082610db357634e487b7160e01b600052601260045260246000fd5b50049056fea2646970667358221220f2669adec2904f3430e1236bbd4d5bf279909db0b945491928b71e6d6e8da86364736f6c63430008110033",
    "linkReferences": {}
  },
  "methodIdentifiers": {
    "allowance(address,address)": "dd62ed3e",
    "approve(address,uint256)": "095ea7b3",
    "balanceOf(address)": "70a08231",
    "calculateBurnRate(uint256)": "94138145",
    "decimals()": "313ce567",
    "decreaseAllowance(address,uint256)": "a457c2d7",
    "getBurnRate()": "482cd6c5",
    "increaseAllowance(address,uint256)": "39509351",
    "name()": "06fdde03",
    "owner()": "8da5cb5b",
    "renounceOwnership()": "715018a6",
    "setBurnRate(uint8)": "5eb08d8a",
    "symbol()": "95d89b41",
    "totalSupply()": "18160ddd",
    "transfer(address,uint256)": "a9059cbb",
    "transferFrom(address,address,uint256)": "23b872dd",
    "transferOwnership(address)": "f2fde38b"
  },
  "id": 0
}