{
  "abi": [
    {
      "inputs": [
        {
          "internalType": "string",
          "name": "name_",
          "type": "string"
        },
        {
          "internalType": "string",
          "name": "symbol_",
          "type": "string"
        },
        {
          "internalType": "uint16",
          "name": "burnRate",
          "type": "uint16"
        },
        {
          "internalType": "uint256",
          "name": "supply_",
          "type": "uint256"
        }
      ],
      "stateMutability": "nonpayable",
      "type": "constructor"
    },
    {
      "anonymous": false,
      "inputs": [
        {
          "indexed": true,
          "internalType": "address",
          "name": "owner",
          "type": "address"
        },
        {
          "indexed": true,
          "internalType": "address",
          "name": "spender",
          "type": "address"
        },
        {
          "indexed": false,
          "internalType": "uint256",
          "name": "value",
          "type": "uint256"
        }
      ],
      "name": "Approval",
      "type": "event"
    },
    {
      "anonymous": false,
      "inputs": [
        {
          "indexed": true,
          "internalType": "address",
          "name": "previousOwner",
          "type": "address"
        },
        {
          "indexed": true,
          "internalType": "address",
          "name": "newOwner",
          "type": "address"
        }
      ],
      "name": "OwnershipTransferred",
      "type": "event"
    },
    {
      "anonymous": false,
      "inputs": [
        {
          "indexed": true,
          "internalType": "address",
          "name": "from",
          "type": "address"
        },
        {
          "indexed": true,
          "internalType": "address",
          "name": "to",
          "type": "address"
        },
        {
          "indexed": false,
          "internalType": "uint256",
          "name": "value",
          "type": "uint256"
        }
      ],
      "name": "Transfer",
      "type": "event"
    },
    {
      "anonymous": false,
      "inputs": [
        {
          "indexed": false,
          "internalType": "address",
          "name": "from",
          "type": "address"
        },
        {
          "indexed": false,
          "internalType": "uint256",
          "name": "transferAmount",
          "type": "uint256"
        },
        {
          "indexed": false,
          "internalType": "uint256",
          "name": "burnAmount",
          "type": "uint256"
        }
      ],
      "name": "deflation",
      "type": "event"
    },
    {
      "inputs": [
        {
          "internalType": "address",
          "name": "owner",
          "type": "address"
        },
        {
          "internalType": "address",
          "name": "spender",
          "type": "address"
        }
      ],
      "name": "allowance",
      "outputs": [
        {
          "internalType": "uint256",
          "name": "",
          "type": "uint256"
        }
      ],
      "stateMutability": "view",
      "type": "function"
    },
    {
      "inputs": [
        {
          "internalType": "address",
          "name": "spender",
          "type": "address"
        },
        {
          "internalType": "uint256",
          "name": "amount",
          "type": "uint256"
        }
      ],
      "name": "approve",
      "outputs": [
        {
          "internalType": "bool",
          "name": "",
          "type": "bool"
        }
      ],
      "stateMutability": "nonpayable",
      "type": "function"
    },
    {
      "inputs": [
        {
          "internalType": "address",
          "name": "account",
          "type": "address"
        }
      ],
      "name": "balanceOf",
      "outputs": [
        {
          "internalType": "uint256",
          "name": "",
          "type": "uint256"
        }
      ],
      "stateMutability": "view",
      "type": "function"
    },
    {
      "inputs": [
        {
          "internalType": "uint256",
          "name": "amount",
          "type": "uint256"
        }
      ],
      "name": "calculateBurnRate",
      "outputs": [
        {
          "internalType": "uint256",
          "name": "",
          "type": "uint256"
        }
      ],
      "stateMutability": "view",
      "type": "function"
    },
    {
      "inputs": [],
      "name": "decimals",
      "outputs": [
        {
          "internalType": "uint8",
          "name": "",
          "type": "uint8"
        }
      ],
      "stateMutability": "view",
      "type": "function"
    },
    {
      "inputs": [
        {
          "internalType": "address",
          "name": "spender",
          "type": "address"
        },
        {
          "internalType": "uint256",
          "name": "subtractedValue",
          "type": "uint256"
        }
      ],
      "name": "decreaseAllowance",
      "outputs": [
        {
          "internalType": "bool",
          "name": "",
          "type": "bool"
        }
      ],
      "stateMutability": "nonpayable",
      "type": "function"
    },
    {
      "inputs": [],
      "name": "getBurnRate",
      "outputs": [
        {
          "internalType": "uint16",
          "name": "",
          "type": "uint16"
        }
      ],
      "stateMutability": "view",
      "type": "function"
    },
    {
      "inputs": [
        {
          "internalType": "address",
          "name": "spender",
          "type": "address"
        },
        {
          "internalType": "uint256",
          "name": "addedValue",
          "type": "uint256"
        }
      ],
      "name": "increaseAllowance",
      "outputs": [
        {
          "internalType": "bool",
          "name": "",
          "type": "bool"
        }
      ],
      "stateMutability": "nonpayable",
      "type": "function"
    },
    {
      "inputs": [],
      "name": "name",
      "outputs": [
        {
          "internalType": "string",
          "name": "",
          "type": "string"
        }
      ],
      "stateMutability": "view",
      "type": "function"
    },
    {
      "inputs": [],
      "name": "owner",
      "outputs": [
        {
          "internalType": "address",
          "name": "",
          "type": "address"
        }
      ],
      "stateMutability": "view",
      "type": "function"
    },
    {
      "inputs": [],
      "name": "renounceOwnership",
      "outputs": [],
      "stateMutability": "nonpayable",
      "type": "function"
    },
    {
      "inputs": [
        {
          "internalType": "uint8",
          "name": "burnRate_",
          "type": "uint8"
        }
      ],
      "name": "setBurnRate",
      "outputs": [
        {
          "internalType": "uint16",
          "name": "",
          "type": "uint16"
        }
      ],
      "stateMutability": "nonpayable",
      "type": "function"
    },
    {
      "inputs": [],
      "name": "symbol",
      "outputs": [
        {
          "internalType": "string",
          "name": "",
          "type": "string"
        }
      ],
      "stateMutability": "view",
      "type": "function"
    },
    {
      "inputs": [],
      "name": "totalSupply",
      "outputs": [
        {
          "internalType": "uint256",
          "name": "",
          "type": "uint256"
        }
      ],
      "stateMutability": "view",
      "type": "function"
    },
    {
      "inputs": [
        {
          "internalType": "address",
          "name": "to",
          "type": "address"
        },
        {
          "internalType": "uint256",
          "name": "amount",
          "type": "uint256"
        }
      ],
      "name": "transfer",
      "outputs": [
        {
          "internalType": "bool",
          "name": "",
          "type": "bool"
        }
      ],
      "stateMutability": "nonpayable",
      "type": "function"
    },
    {
      "inputs": [
        {
          "internalType": "address",
          "name": "from",
          "type": "address"
        },
        {
          "internalType": "address",
          "name": "to",
          "type": "address"
        },
        {
          "internalType": "uint256",
          "name": "amount",
          "type": "uint256"
        }
      ],
      "name": "transferFrom",
      "outputs": [
        {
          "internalType": "bool",
          "name": "",
          "type": "bool"
        }
      ],
      "stateMutability": "nonpayable",
      "type": "function"
    },
    {
      "inputs": [
        {
          "internalType": "address",
          "name": "newOwner",
          "type": "address"
        }
      ],
      "name": "transferOwnership",
      "outputs": [],
      "stateMutability": "nonpayable",
      "type": "function"
    }
  ],
  "bytecode": {
    "object": "0x60806040523480156200001157600080fd5b5060405162001408380380620014088339810160408190526200003491620002a7565b83836003620000448382620003c1565b506004620000538282620003c1565b505050620000706200006a620000c160201b60201c565b620000c5565b6005805461ffff60a01b1916600160a01b61ffff851602179055620000b73362000098601290565b620000a590600a620005a2565b620000b19084620005ba565b62000117565b50505050620005ea565b3390565b600580546001600160a01b038381166001600160a01b0319831681179093556040519116919082907f8be0079c531659141344cd1fd0a4f28419497f9722a3daafe3b4186f6b6457e090600090a35050565b6001600160a01b038216620001725760405162461bcd60e51b815260206004820152601f60248201527f45524332303a206d696e7420746f20746865207a65726f206164647265737300604482015260640160405180910390fd5b8060026000828254620001869190620005d4565b90915550506001600160a01b038216600081815260208181526040808320805486019055518481527fddf252ad1be2c89b69c2b068fc378daa952ba7f163c4a11628f55a4df523b3ef910160405180910390a35050565b505050565b634e487b7160e01b600052604160045260246000fd5b600082601f8301126200020a57600080fd5b81516001600160401b0380821115620002275762000227620001e2565b604051601f8301601f19908116603f01168101908282118183101715620002525762000252620001e2565b816040528381526020925086838588010111156200026f57600080fd5b600091505b8382101562000293578582018301518183018401529082019062000274565b600093810190920192909252949350505050565b60008060008060808587031215620002be57600080fd5b84516001600160401b0380821115620002d657600080fd5b620002e488838901620001f8565b95506020870151915080821115620002fb57600080fd5b506200030a87828801620001f8565b935050604085015161ffff811681146200032357600080fd5b6060959095015193969295505050565b600181811c908216806200034857607f821691505b6020821081036200036957634e487b7160e01b600052602260045260246000fd5b50919050565b601f821115620001dd57600081815260208120601f850160051c81016020861015620003985750805b601f850160051c820191505b81811015620003b957828155600101620003a4565b505050505050565b81516001600160401b03811115620003dd57620003dd620001e2565b620003f581620003ee845462000333565b846200036f565b602080601f8311600181146200042d5760008415620004145750858301515b600019600386901b1c1916600185901b178555620003b9565b600085815260208120601f198616915b828110156200045e578886015182559484019460019091019084016200043d565b50858210156200047d5787850151600019600388901b60f8161c191681555b5050505050600190811b01905550565b634e487b7160e01b600052601160045260246000fd5b600181815b80851115620004e4578160001904821115620004c857620004c86200048d565b80851615620004d657918102915b93841c9390800290620004a8565b509250929050565b600082620004fd575060016200059c565b816200050c575060006200059c565b8160018114620005255760028114620005305762000550565b60019150506200059c565b60ff8411156200054457620005446200048d565b50506001821b6200059c565b5060208310610133831016604e8410600b841016171562000575575081810a6200059c565b620005818383620004a3565b80600019048211156200059857620005986200048d565b0290505b92915050565b6000620005b360ff841683620004ec565b9392505050565b80820281158282048414176200059c576200059c6200048d565b808201808211156200059c576200059c6200048d565b610e0e80620005fa6000396000f3fe608060405234801561001057600080fd5b506004361061010b5760003560e01c806370a08231116100a257806395d89b411161007157806395d89b4114610227578063a457c2d71461022f578063a9059cbb14610242578063dd62ed3e14610255578063f2fde38b1461026857600080fd5b806370a08231146101c6578063715018a6146101ef5780638da5cb5b146101f9578063941381451461021457600080fd5b8063313ce567116100de578063313ce567146101765780633950935114610185578063482cd6c5146101985780635eb08d8a146101b357600080fd5b806306fdde0314610110578063095ea7b31461012e57806318160ddd1461015157806323b872dd14610163575b600080fd5b61011861027b565b6040516101259190610bcd565b60405180910390f35b61014161013c366004610c32565b61030d565b6040519015158152602001610125565b6002545b604051908152602001610125565b610141610171366004610c5c565b610327565b60405160128152602001610125565b610141610193366004610c32565b6103e1565b6101a0610403565b60405161ffff9091168152602001610125565b6101a06101c1366004610c98565b61041f565b6101556101d4366004610cc2565b6001600160a01b031660009081526020819052604090205490565b6101f76104b7565b005b6005546040516001600160a01b039091168152602001610125565b610155610222366004610cdd565b6104cb565b6101186104f3565b61014161023d366004610c32565b610502565b610141610250366004610c32565b610588565b610155610263366004610cf6565b610610565b6101f7610276366004610cc2565b61063b565b60606003805461028a90610d29565b80601f01602080910402602001604051908101604052809291908181526020018280546102b690610d29565b80156103035780601f106102d857610100808354040283529160200191610303565b820191906000526020600020905b8154815290600101906020018083116102e657829003601f168201915b5050505050905090565b60003361031b8185856106b4565b60019150505b92915050565b6001600160a01b03831660009081526020819052604081205433908311156103965760405162461bcd60e51b815260206004820152601d60248201527f4e6f7420656e6f75676820746f6b656e7320746f207472616e7366657200000060448201526064015b60405180910390fd5b60006103a1846104cb565b90506103b786836103b28488610d79565b6107d9565b6103cb86866103c68488610d79565b610853565b6103d586826109f7565b50600195945050505050565b60003361031b8185856103f48383610610565b6103fe9190610d8c565b6106b4565b600061040d610b21565b50600554600160a01b900461ffff1690565b6000610429610b21565b60328260ff161061048a5760405162461bcd60e51b815260206004820152602560248201527f4665652063616e6e6f742062652067726561746572207468616e2035302070656044820152641c98d95b9d60da1b606482015260840161038d565b506005805461ffff60a01b191660ff8316600160a01b908102919091179182905561ffff9104165b919050565b6104bf610b21565b6104c96000610b7b565b565b6005546000906064906104e990600160a01b900461ffff1684610d9f565b6103219190610db6565b60606004805461028a90610d29565b600033816105108286610610565b9050838110156105705760405162461bcd60e51b815260206004820152602560248201527f45524332303a2064656372656173656420616c6c6f77616e63652062656c6f77604482015264207a65726f60d81b606482015260840161038d565b61057d82868684036106b4565b506001949350505050565b336000818152602081905260408120549091908311156105ea5760405162461bcd60e51b815260206004820152601d60248201527f4e6f7420656e6f75676820746f6b656e7320746f207472616e73666572000000604482015260640161038d565b60006105f5846104cb565b905061060682866103c68488610d79565b61057d82826109f7565b6001600160a01b03918216600090815260016020908152604080832093909416825291909152205490565b610643610b21565b6001600160a01b0381166106a85760405162461bcd60e51b815260206004820152602660248201527f4f776e61626c653a206e6577206f776e657220697320746865207a65726f206160448201526564647265737360d01b606482015260840161038d565b6106b181610b7b565b50565b6001600160a01b0383166107165760405162461bcd60e51b8152602060048201526024808201527f45524332303a20617070726f76652066726f6d20746865207a65726f206164646044820152637265737360e01b606482015260840161038d565b6001600160a01b0382166107775760405162461bcd60e51b815260206004820152602260248201527f45524332303a20617070726f766520746f20746865207a65726f206164647265604482015261737360f01b606482015260840161038d565b6001600160a01b0383811660008181526001602090815260408083209487168084529482529182902085905590518481527f8c5be1e5ebec7d5bd14f71427d1e84f3dd0314c0f7b2291e5b200ac8c7c3b92591015b60405180910390a3505050565b60006107e58484610610565b9050600019811461084d57818110156108405760405162461bcd60e51b815260206004820152601d60248201527f45524332303a20696e73756666696369656e7420616c6c6f77616e6365000000604482015260640161038d565b61084d84848484036106b4565b50505050565b6001600160a01b0383166108b75760405162461bcd60e51b815260206004820152602560248201527f45524332303a207472616e736665722066726f6d20746865207a65726f206164604482015264647265737360d81b606482015260840161038d565b6001600160a01b0382166109195760405162461bcd60e51b815260206004820152602360248201527f45524332303a207472616e7366657220746f20746865207a65726f206164647260448201526265737360e81b606482015260840161038d565b6001600160a01b038316600090815260208190526040902054818110156109915760405162461bcd60e51b815260206004820152602660248201527f45524332303a207472616e7366657220616d6f756e7420657863656564732062604482015265616c616e636560d01b606482015260840161038d565b6001600160a01b03848116600081815260208181526040808320878703905593871680835291849020805487019055925185815290927fddf252ad1be2c89b69c2b068fc378daa952ba7f163c4a11628f55a4df523b3ef910160405180910390a361084d565b6001600160a01b038216610a575760405162461bcd60e51b815260206004820152602160248201527f45524332303a206275726e2066726f6d20746865207a65726f206164647265736044820152607360f81b606482015260840161038d565b6001600160a01b03821660009081526020819052604090205481811015610acb5760405162461bcd60e51b815260206004820152602260248201527f45524332303a206275726e20616d6f756e7420657863656564732062616c616e604482015261636560f01b606482015260840161038d565b6001600160a01b0383166000818152602081815260408083208686039055600280548790039055518581529192917fddf252ad1be2c89b69c2b068fc378daa952ba7f163c4a11628f55a4df523b3ef91016107cc565b6005546001600160a01b031633146104c95760405162461bcd60e51b815260206004820181905260248201527f4f776e61626c653a2063616c6c6572206973206e6f7420746865206f776e6572604482015260640161038d565b600580546001600160a01b038381166001600160a01b0319831681179093556040519116919082907f8be0079c531659141344cd1fd0a4f28419497f9722a3daafe3b4186f6b6457e090600090a35050565b600060208083528351808285015260005b81811015610bfa57858101830151858201604001528201610bde565b506000604082860101526040601f19601f8301168501019250505092915050565b80356001600160a01b03811681146104b257600080fd5b60008060408385031215610c4557600080fd5b610c4e83610c1b565b946020939093013593505050565b600080600060608486031215610c7157600080fd5b610c7a84610c1b565b9250610c8860208501610c1b565b9150604084013590509250925092565b600060208284031215610caa57600080fd5b813560ff81168114610cbb57600080fd5b9392505050565b600060208284031215610cd457600080fd5b610cbb82610c1b565b600060208284031215610cef57600080fd5b5035919050565b60008060408385031215610d0957600080fd5b610d1283610c1b565b9150610d2060208401610c1b565b90509250929050565b600181811c90821680610d3d57607f821691505b602082108103610d5d57634e487b7160e01b600052602260045260246000fd5b50919050565b634e487b7160e01b600052601160045260246000fd5b8181038181111561032157610321610d63565b8082018082111561032157610321610d63565b808202811582820484141761032157610321610d63565b600082610dd357634e487b7160e01b600052601260045260246000fd5b50049056fea26469706673582212202f274d412dead47374ec8be9a5c819048425f1790a8c872ddf2c3fcd0016d1f664736f6c63430008110033",
    "linkReferences": {}
  },
  "methodIdentifiers": {
    "allowance(address,address)": "dd62ed3e",
    "approve(address,uint256)": "095ea7b3",
    "balanceOf(address)": "70a08231",
    "calculateBurnRate(uint256)": "94138145",
    "decimals()": "313ce567",
    "decreaseAllowance(address,uint256)": "a457c2d7",
    "getBurnRate()": "482cd6c5",
    "increaseAllowance(address,uint256)": "39509351",
    "name()": "06fdde03",
    "owner()": "8da5cb5b",
    "renounceOwnership()": "715018a6",
    "setBurnRate(uint8)": "5eb08d8a",
    "symbol()": "95d89b41",
    "totalSupply()": "18160ddd",
    "transfer(address,uint256)": "a9059cbb",
    "transferFrom(address,address,uint256)": "23b872dd",
    "transferOwnership(address)": "f2fde38b"
  },
  "id": 0
}