{
  "abi": [
    {
      "inputs": [
        {
          "internalType": "string",
          "name": "name_",
          "type": "string"
        },
        {
          "internalType": "string",
          "name": "symbol_",
          "type": "string"
        },
        {
          "internalType": "uint8",
          "name": "fee_",
          "type": "uint8"
        },
        {
          "internalType": "uint256",
          "name": "supply_",
          "type": "uint256"
        }
      ],
      "stateMutability": "nonpayable",
      "type": "constructor"
    },
    {
      "anonymous": false,
      "inputs": [
        {
          "indexed": true,
          "internalType": "address",
          "name": "owner",
          "type": "address"
        },
        {
          "indexed": true,
          "internalType": "address",
          "name": "spender",
          "type": "address"
        },
        {
          "indexed": false,
          "internalType": "uint256",
          "name": "value",
          "type": "uint256"
        }
      ],
      "name": "Approval",
      "type": "event"
    },
    {
      "anonymous": false,
      "inputs": [
        {
          "indexed": true,
          "internalType": "address",
          "name": "previousOwner",
          "type": "address"
        },
        {
          "indexed": true,
          "internalType": "address",
          "name": "newOwner",
          "type": "address"
        }
      ],
      "name": "OwnershipTransferred",
      "type": "event"
    },
    {
      "anonymous": false,
      "inputs": [
        {
          "indexed": true,
          "internalType": "address",
          "name": "from",
          "type": "address"
        },
        {
          "indexed": true,
          "internalType": "address",
          "name": "to",
          "type": "address"
        },
        {
          "indexed": false,
          "internalType": "uint256",
          "name": "value",
          "type": "uint256"
        }
      ],
      "name": "Transfer",
      "type": "event"
    },
    {
      "inputs": [
        {
          "internalType": "uint256",
          "name": "amount",
          "type": "uint256"
        }
      ],
      "name": "_calcfeepercentage",
      "outputs": [
        {
          "internalType": "uint256",
          "name": "",
          "type": "uint256"
        }
      ],
      "stateMutability": "view",
      "type": "function"
    },
    {
      "inputs": [
        {
          "internalType": "uint256",
          "name": "amount",
          "type": "uint256"
        },
        {
          "internalType": "uint256",
          "name": "fee",
          "type": "uint256"
        }
      ],
      "name": "_calctransfer",
      "outputs": [
        {
          "internalType": "uint256",
          "name": "",
          "type": "uint256"
        }
      ],
      "stateMutability": "pure",
      "type": "function"
    },
    {
      "inputs": [
        {
          "internalType": "address",
          "name": "owner",
          "type": "address"
        },
        {
          "internalType": "address",
          "name": "spender",
          "type": "address"
        }
      ],
      "name": "allowance",
      "outputs": [
        {
          "internalType": "uint256",
          "name": "",
          "type": "uint256"
        }
      ],
      "stateMutability": "view",
      "type": "function"
    },
    {
      "inputs": [
        {
          "internalType": "address",
          "name": "spender",
          "type": "address"
        },
        {
          "internalType": "uint256",
          "name": "amount",
          "type": "uint256"
        }
      ],
      "name": "approve",
      "outputs": [
        {
          "internalType": "bool",
          "name": "",
          "type": "bool"
        }
      ],
      "stateMutability": "nonpayable",
      "type": "function"
    },
    {
      "inputs": [
        {
          "internalType": "address",
          "name": "account",
          "type": "address"
        }
      ],
      "name": "balanceOf",
      "outputs": [
        {
          "internalType": "uint256",
          "name": "",
          "type": "uint256"
        }
      ],
      "stateMutability": "view",
      "type": "function"
    },
    {
      "inputs": [],
      "name": "decimals",
      "outputs": [
        {
          "internalType": "uint8",
          "name": "",
          "type": "uint8"
        }
      ],
      "stateMutability": "view",
      "type": "function"
    },
    {
      "inputs": [
        {
          "internalType": "address",
          "name": "spender",
          "type": "address"
        },
        {
          "internalType": "uint256",
          "name": "subtractedValue",
          "type": "uint256"
        }
      ],
      "name": "decreaseAllowance",
      "outputs": [
        {
          "internalType": "bool",
          "name": "",
          "type": "bool"
        }
      ],
      "stateMutability": "nonpayable",
      "type": "function"
    },
    {
      "inputs": [],
      "name": "getfeepercentage",
      "outputs": [
        {
          "internalType": "uint8",
          "name": "",
          "type": "uint8"
        }
      ],
      "stateMutability": "view",
      "type": "function"
    },
    {
      "inputs": [
        {
          "internalType": "address",
          "name": "spender",
          "type": "address"
        },
        {
          "internalType": "uint256",
          "name": "addedValue",
          "type": "uint256"
        }
      ],
      "name": "increaseAllowance",
      "outputs": [
        {
          "internalType": "bool",
          "name": "",
          "type": "bool"
        }
      ],
      "stateMutability": "nonpayable",
      "type": "function"
    },
    {
      "inputs": [],
      "name": "name",
      "outputs": [
        {
          "internalType": "string",
          "name": "",
          "type": "string"
        }
      ],
      "stateMutability": "view",
      "type": "function"
    },
    {
      "inputs": [],
      "name": "owner",
      "outputs": [
        {
          "internalType": "address",
          "name": "",
          "type": "address"
        }
      ],
      "stateMutability": "view",
      "type": "function"
    },
    {
      "inputs": [],
      "name": "renounceOwnership",
      "outputs": [],
      "stateMutability": "nonpayable",
      "type": "function"
    },
    {
      "inputs": [
        {
          "internalType": "uint8",
          "name": "fee",
          "type": "uint8"
        }
      ],
      "name": "setfeepercentage",
      "outputs": [
        {
          "internalType": "uint8",
          "name": "",
          "type": "uint8"
        }
      ],
      "stateMutability": "nonpayable",
      "type": "function"
    },
    {
      "inputs": [],
      "name": "symbol",
      "outputs": [
        {
          "internalType": "string",
          "name": "",
          "type": "string"
        }
      ],
      "stateMutability": "view",
      "type": "function"
    },
    {
      "inputs": [],
      "name": "totalSupply",
      "outputs": [
        {
          "internalType": "uint256",
          "name": "",
          "type": "uint256"
        }
      ],
      "stateMutability": "view",
      "type": "function"
    },
    {
      "inputs": [
        {
          "internalType": "address",
          "name": "to",
          "type": "address"
        },
        {
          "internalType": "uint256",
          "name": "amount",
          "type": "uint256"
        }
      ],
      "name": "transfer",
      "outputs": [
        {
          "internalType": "bool",
          "name": "",
          "type": "bool"
        }
      ],
      "stateMutability": "nonpayable",
      "type": "function"
    },
    {
      "inputs": [
        {
          "internalType": "address",
          "name": "from",
          "type": "address"
        },
        {
          "internalType": "address",
          "name": "to",
          "type": "address"
        },
        {
          "internalType": "uint256",
          "name": "amount",
          "type": "uint256"
        }
      ],
      "name": "transferFrom",
      "outputs": [
        {
          "internalType": "bool",
          "name": "",
          "type": "bool"
        }
      ],
      "stateMutability": "nonpayable",
      "type": "function"
    },
    {
      "inputs": [
        {
          "internalType": "address",
          "name": "newOwner",
          "type": "address"
        }
      ],
      "name": "transferOwnership",
      "outputs": [],
      "stateMutability": "nonpayable",
      "type": "function"
    }
  ],
  "bytecode": {
    "object": "0x60806040523480156200001157600080fd5b506040516200116338038062001163833981016040819052620000349162000212565b838360036200004483826200032c565b5060046200005382826200032c565b505050620000706200006a620000f760201b60201c565b620000fb565b60096200007e85826200032c565b50600a6200008d84826200032c565b50600b805460ff191660ff8416179055620000a6601290565b620000b390600a6200050d565b620000bf908262000525565b600855620000d06012600a6200050d565b620000dc908262000525565b33600090815260066020526040902055506200053f92505050565b3390565b600580546001600160a01b038381166001600160a01b0319831681179093556040519116919082907f8be0079c531659141344cd1fd0a4f28419497f9722a3daafe3b4186f6b6457e090600090a35050565b634e487b7160e01b600052604160045260246000fd5b600082601f8301126200017557600080fd5b81516001600160401b03808211156200019257620001926200014d565b604051601f8301601f19908116603f01168101908282118183101715620001bd57620001bd6200014d565b81604052838152602092508683858801011115620001da57600080fd5b600091505b83821015620001fe5785820183015181830184015290820190620001df565b600093810190920192909252949350505050565b600080600080608085870312156200022957600080fd5b84516001600160401b03808211156200024157600080fd5b6200024f8883890162000163565b955060208701519150808211156200026657600080fd5b50620002758782880162000163565b935050604085015160ff811681146200028d57600080fd5b6060959095015193969295505050565b600181811c90821680620002b257607f821691505b602082108103620002d357634e487b7160e01b600052602260045260246000fd5b50919050565b601f8211156200032757600081815260208120601f850160051c81016020861015620003025750805b601f850160051c820191505b8181101562000323578281556001016200030e565b5050505b505050565b81516001600160401b038111156200034857620003486200014d565b62000360816200035984546200029d565b84620002d9565b602080601f8311600181146200039857600084156200037f5750858301515b600019600386901b1c1916600185901b17855562000323565b600085815260208120601f198616915b82811015620003c957888601518255948401946001909101908401620003a8565b5085821015620003e85787850151600019600388901b60f8161c191681555b5050505050600190811b01905550565b634e487b7160e01b600052601160045260246000fd5b600181815b808511156200044f578160001904821115620004335762000433620003f8565b808516156200044157918102915b93841c939080029062000413565b509250929050565b600082620004685750600162000507565b81620004775750600062000507565b81600181146200049057600281146200049b57620004bb565b600191505062000507565b60ff841115620004af57620004af620003f8565b50506001821b62000507565b5060208310610133831016604e8410600b8410161715620004e0575081810a62000507565b620004ec83836200040e565b8060001904821115620005035762000503620003f8565b0290505b92915050565b60006200051e60ff84168362000457565b9392505050565b8082028115828204841417620005075762000507620003f8565b610c14806200054f6000396000f3fe608060405234801561001057600080fd5b50600436106101165760003560e01c8063715018a6116100a257806395d89b411161007157806395d89b4114610238578063a457c2d714610240578063a9059cbb14610253578063dd62ed3e14610266578063f2fde38b1461027957600080fd5b8063715018a6146101f857806380d8f0a61461020257806389bf6d67146102155780638da5cb5b1461021d57600080fd5b806323b872dd116100e957806323b872dd14610181578063313ce5671461019457806339509351146101a95780634f90a567146101bc57806370a08231146101cf57600080fd5b806306fdde031461011b578063095ea7b31461013957806318160ddd1461015c5780631d4faf1c1461016e575b600080fd5b61012361028c565b60405161013091906109b8565b60405180910390f35b61014c610147366004610a1d565b61031e565b6040519015158152602001610130565b6008545b604051908152602001610130565b61016061017c366004610a47565b610338565b61014c61018f366004610a60565b610358565b60125b60405160ff9091168152602001610130565b61014c6101b7366004610a1d565b61037c565b6101976101ca366004610a9c565b61039e565b6101606101dd366004610abf565b6001600160a01b031660009081526006602052604090205490565b610200610417565b005b610160610210366004610ada565b61042b565b61019761043e565b6005546040516001600160a01b039091168152602001610130565b610123610452565b61014c61024e366004610a1d565b610461565b61014c610261366004610a1d565b6104dc565b610160610274366004610afc565b6104ea565b610200610287366004610abf565b610515565b60606009805461029b90610b2f565b80601f01602080910402602001604051908101604052809291908181526020018280546102c790610b2f565b80156103145780601f106102e957610100808354040283529160200191610314565b820191906000526020600020905b8154815290600101906020018083116102f757829003601f168201915b5050505050905090565b60003361032c81858561058e565b60019150505b92915050565b600b5460009060649061034e9060ff1684610b7f565b6103329190610b96565b6000336103668582856106b2565b61037185858561072c565b506001949350505050565b60003361032c81858561038f83836104ea565b6103999190610bb8565b61058e565b60006103a861090c565b60008260ff16116104005760405162461bcd60e51b815260206004820152601760248201527f4665652063616e6e6f7420626520302070657263656e7400000000000000000060448201526064015b60405180910390fd5b50600b805460ff191660ff8316179055805b919050565b61041f61090c565b6104296000610966565b565b60006104378284610bcb565b9392505050565b600061044861090c565b50600b5460ff1690565b6060600a805461029b90610b2f565b6000338161046f82866104ea565b9050838110156104cf5760405162461bcd60e51b815260206004820152602560248201527f45524332303a2064656372656173656420616c6c6f77616e63652062656c6f77604482015264207a65726f60d81b60648201526084016103f7565b610371828686840361058e565b60003361032c81858561072c565b6001600160a01b03918216600090815260076020908152604080832093909416825291909152205490565b61051d61090c565b6001600160a01b0381166105825760405162461bcd60e51b815260206004820152602660248201527f4f776e61626c653a206e6577206f776e657220697320746865207a65726f206160448201526564647265737360d01b60648201526084016103f7565b61058b81610966565b50565b6001600160a01b0383166105f05760405162461bcd60e51b8152602060048201526024808201527f45524332303a20617070726f76652066726f6d20746865207a65726f206164646044820152637265737360e01b60648201526084016103f7565b6001600160a01b0382166106515760405162461bcd60e51b815260206004820152602260248201527f45524332303a20617070726f766520746f20746865207a65726f206164647265604482015261737360f01b60648201526084016103f7565b6001600160a01b0383811660008181526007602090815260408083209487168084529482529182902085905590518481527f8c5be1e5ebec7d5bd14f71427d1e84f3dd0314c0f7b2291e5b200ac8c7c3b925910160405180910390a3505050565b60006106be84846104ea565b9050600019811461072657818110156107195760405162461bcd60e51b815260206004820152601d60248201527f45524332303a20696e73756666696369656e7420616c6c6f77616e636500000060448201526064016103f7565b610726848484840361058e565b50505050565b6001600160a01b0383166107905760405162461bcd60e51b815260206004820152602560248201527f45524332303a207472616e736665722066726f6d20746865207a65726f206164604482015264647265737360d81b60648201526084016103f7565b6001600160a01b0382166107f25760405162461bcd60e51b815260206004820152602360248201527f45524332303a207472616e7366657220746f20746865207a65726f206164647260448201526265737360e81b60648201526084016103f7565b6001600160a01b0383166000908152600660205260409020548181101561086a5760405162461bcd60e51b815260206004820152602660248201527f45524332303a207472616e7366657220616d6f756e7420657863656564732062604482015265616c616e636560d01b60648201526084016103f7565b600061087583610338565b90506000610883848361042b565b6001600160a01b038088166000818152600660205260408082208589038155938a16808352818320805487019055918390528354879003909355600880548790039055915192935090917fddf252ad1be2c89b69c2b068fc378daa952ba7f163c4a11628f55a4df523b3ef906108fc9088815260200190565b60405180910390a3505050505050565b6005546001600160a01b031633146104295760405162461bcd60e51b815260206004820181905260248201527f4f776e61626c653a2063616c6c6572206973206e6f7420746865206f776e657260448201526064016103f7565b600580546001600160a01b038381166001600160a01b0319831681179093556040519116919082907f8be0079c531659141344cd1fd0a4f28419497f9722a3daafe3b4186f6b6457e090600090a35050565b600060208083528351808285015260005b818110156109e5578581018301518582016040015282016109c9565b506000604082860101526040601f19601f8301168501019250505092915050565b80356001600160a01b038116811461041257600080fd5b60008060408385031215610a3057600080fd5b610a3983610a06565b946020939093013593505050565b600060208284031215610a5957600080fd5b5035919050565b600080600060608486031215610a7557600080fd5b610a7e84610a06565b9250610a8c60208501610a06565b9150604084013590509250925092565b600060208284031215610aae57600080fd5b813560ff8116811461043757600080fd5b600060208284031215610ad157600080fd5b61043782610a06565b60008060408385031215610aed57600080fd5b50508035926020909101359150565b60008060408385031215610b0f57600080fd5b610b1883610a06565b9150610b2660208401610a06565b90509250929050565b600181811c90821680610b4357607f821691505b602082108103610b6357634e487b7160e01b600052602260045260246000fd5b50919050565b634e487b7160e01b600052601160045260246000fd5b808202811582820484141761033257610332610b69565b600082610bb357634e487b7160e01b600052601260045260246000fd5b500490565b8082018082111561033257610332610b69565b8181038181111561033257610332610b6956fea26469706673582212201715b77be387833136179a041fbbe241b9ea436cf974f959a194a42233fd439664736f6c63430008110033",
    "linkReferences": {}
  },
  "methodIdentifiers": {
    "_calcfeepercentage(uint256)": "1d4faf1c",
    "_calctransfer(uint256,uint256)": "80d8f0a6",
    "allowance(address,address)": "dd62ed3e",
    "approve(address,uint256)": "095ea7b3",
    "balanceOf(address)": "70a08231",
    "decimals()": "313ce567",
    "decreaseAllowance(address,uint256)": "a457c2d7",
    "getfeepercentage()": "89bf6d67",
    "increaseAllowance(address,uint256)": "39509351",
    "name()": "06fdde03",
    "owner()": "8da5cb5b",
    "renounceOwnership()": "715018a6",
    "setfeepercentage(uint8)": "4f90a567",
    "symbol()": "95d89b41",
    "totalSupply()": "18160ddd",
    "transfer(address,uint256)": "a9059cbb",
    "transferFrom(address,address,uint256)": "23b872dd",
    "transferOwnership(address)": "f2fde38b"
  },
  "id": 0
}